:100000000C9446010C9491050C94BE050C946E0161
:100010000C946E010C946E010C946E010C946E01A4
:100020000C946E010C946E010C946E010C946E0194
:100030000C946E010C946E010C946E010C946E0184
:100040000C940C060C946E010C9431080C946D0801
:100050000C946E010C946E010C946E010C946E0164
:100060000C94D41C0C946E010000000700020100E7
:100070000003040600000000000000000102040864
:100080001020408001020408102001020408102002
:10009000040404040404040402020202020203032E
:1000A0000303030300000000250028002B000000CC
:1000B0000000240027002A005354415455530909D5
:1000C000203D203078253032782052585F44523D10
:1000D00025782054585F44533D2578204D41585F82
:1000E00052543D25782052585F505F4E4F3D257841
:1000F0002054585F46554C4C3D25780D0A004F4220
:1001000053455256455F54583D253032783A205079
:100110004F4C535F434E543D2578204152435F433B
:100120004E543D25780D0A002553092563203D00D6
:1001300020307825303278000D0A002553092563D8
:10014000203D002030780025303278000D0A005222
:10015000585F414444525F50302D310052585F4146
:100160004444525F50322D350054585F414444524C
:100170000052585F50575F50302D3600454E5F415A
:100180004100454E5F5258414444520052465F433D
:10019000480052465F534554555000434F4E464920
:1001A000470044594E50442F46454154555245004E
:1001B0001F0225022B02446174612052617465099B
:1001C000203D2025530D0A0033023C024D6F64652B
:1001D0006C0909203D2025530D0A0046024F0256A6
:1001E00002435243204C656E67746809203D202508
:1001F000530D0A005E0265026C02730250412050EA
:100200006F77657209203D2025530D0A000A0B0CFB
:100210000D0E0F11121314151600010203040531FF
:100220004D42505300324D425053003235304B4214
:100230005053006E524632344C3031006E524632CA
:10024000344C30312B0044697361626C6564003852
:100250002062697473003136206269747300504102
:100260005F4D494E0050415F4C4F57004C415F4D30
:1002700045440050415F4849474800004805280967
:10028000670E7711F31A6D056D0E7D1111241FBED7
:10029000CFEFD8E0DEBFCDBF14E0A0E0B1E0EEE9E3
:1002A000F0E502C005900D92A434B107D9F717E02C
:1002B000A4E4B4E001C01D92AA34B107E1F712E052
:1002C000C6E8D2E004C02297FE010E943E28CC3747
:1002D000D107C9F70E9478090C9455210C940000AD
:1002E000CF93C82F682F8BEA94E00E94FB072C2F36
:1002F000332727FD30958C2F932FCF910895CF93DF
:10030000DF9300D01F92CDB7DEB79E012F5F3F4F26
:10031000AE014E5F5F4FBE016D5F7F4F8CE494E096
:100320000E9459178981882379F081E080935C04C9
:100330008CE494E00E943317482F6DE574E08CE460
:1003400094E00E944C170CC08A81882349F081E018
:1003500080935C046BE071E08BEA94E00E94F30907
:100360000F900F900F90DF91CF91089560E070E0B3
:1003700080E791E00C94BF21EF92FF920F931F93BF
:1003800040E052EC61E070E08BEA94E00E94A80843
:100390000E94B60163E08DE794E00E942012811173
:1003A00009C069E871E08BEA94E00E94F3091092B9
:1003B0007C0403C081E080937C0461E083E00E94C0
:1003C000270760E083E00E945F0760E083E00E940F
:1003D000270760E083E00E945F074FE350E063E09F
:1003E0008DE994E00E94650F44ED50E168E470E00F
:1003F0008DE994E00E94470F48EF5DE060E370E014
:100400008DE994E00E94470F8CE494E00E9411195A
:100410008CE494E00E943A184FE06FE08CE494E0A2
:100420000E94121A60E08CE494E00E94681862E076
:1004300070E08CE494E00E94AC1801EE10EF20EF25
:1004400030EF40EF50E060E070E08CE494E00E9418
:100450007B1782EDE82E90EFF92E00EF20EF30E0D1
:1004600040E050E061E08CE494E00E94B7178CE437
:1004700094E00E94FD1664EA71E08BEA94E00E9429
:10048000F3098CE494E00E94721963ED71E08BEA49
:1004900094E00E94120A42E050E06FE771E080E0D1
:1004A0001F910F91FF90EF900C9471056F927F92C6
:1004B0008F929F92AF92BF92CF92DF92EF92FF9274
:1004C0000F931F93CF93DF93CDB7DEB72E970FB661
:1004D000F894DEBF0FBECDBFEDB6FEB688EE93E05A
:1004E0000E94B8060E945606009178041091790483
:1004F00020917A0430917B04005D1A482F4F3F4FC2
:10050000061717072807390708F057C066ED71E08E
:100510008BEA94E00E94F30964EF71E08BEA94E0C7
:100520000E94F30980917C048823F9F08DE794E020
:100530000E940513AB01BC0122E030E08BEA94E09D
:100540000E94920B6CE072E08BEA94E00E94F30947
:100550008DE794E00E942613AB01BC012AE030E055
:100560008BEA94E00E94960A18C080E00E94EB0596
:10057000BC01882777FD8095982F0E94332326E6BB
:1005800036E646EE5EE30E942524AB01BC0122E084
:1005900030E08BEA94E00E94920B65EC73E08BEA0A
:1005A00094E00E94120A0E945606609378047093A9
:1005B000790480937A0490937B048CE994E00E9400
:1005C0001B11882309F49FC08CE994E00E94860FD8
:1005D00069018A014B015C01A0E00E94242809F412
:1005E00092C00E94CB0F813009F443C038F08230B2
:1005F00009F448C0833009F06CC065C06BE172E05B
:100600008BEA94E00E94F3099601A801B401C501A8
:100610000E94C90F4AE050E0682F8BEA94E00E94E4
:100620008F0A6EE972E08BEA94E00E94F30996016A
:10063000A801B401C5010E94B40FAB01BC0122E0C6
:1006400030E08BEA94E00E94920B67E472E08BEA60
:1006500094E00E94F3099601A801B401C5010E942B
:10066000A70F4AE050E0682F8BEA94E00E948F0ABF
:1006700030C06CE974E0CE0101960E94351165E549
:1006800072E008C06CE974E0CE0101960E94351159
:1006900061E872E0CE0108960E94050CBE016F5F12
:1006A0007F4FCE0108960E94F70CBC018BEA94E0C4
:1006B0000E94BD09CE0108960E94940BCE010196BE
:1006C0000E94940B06C060EB72E08BEA94E00E94FB
:1006D000F3096DED72E08BEA94E00E94F30920E1EA
:1006E00030E0A601B8018BEA94E00E94820A61ED35
:1006F00071E08BEA94E00E94F30965EC73E08BEA09
:1007000094E00E94120A84E994E00E944D0E88232E
:1007100069F184E994E00E94C90D69018A012F3FC3
:100720003F4F4F405105610571058105910521F04D
:1007300018F06DEE72E002C069E073E08BEA94E0BD
:100740000E94F3096DED72E08BEA94E00E94F309D8
:1007500020E130E0A601B8018BEA94E00E94820A11
:1007600063ED71E08BEA94E00E94120A80915C04D0
:10077000882309F4D3C065E273E08BEA94E00E9419
:10078000F30966E473E08BEA94E00E94F309409178
:100790005D0450915E0460915F04709160042AE0F2
:1007A00030E08BEA94E00E94960A68E372E08BEAFC
:1007B00094E00E94F30940916104509162046091B9
:1007C00063047091640422E030E08BEA94E00E94BC
:1007D000920B6EE972E08BEA94E00E94F30940917B
:1007E000650450916604609167047091680422E08A
:1007F00030E08BEA94E00E94920B60E573E08BEAB4
:1008000094E00E94F3094091690450916A04609158
:100810006B0470916C0422E030E08BEA94E00E945B
:10082000920B63E673E08BEA94E00E94F309609117
:100830006D0470916E044AE050E08BEA94E00E94EF
:10084000E10A64E773E08BEA94E00E94F3094AE06E
:1008500050E0609177048BEA94E00E948F0A0FE6E3
:1008600014E0A12CB12C60E873E08BEA94E00E94C4
:10087000F3094AE050E0B5018BEA94E00E94E10AF6
:100880006CE473E08BEA94E00E94F309F801619153
:1008900071918F014AE050E08BEA94E00E94E10AF6
:1008A000FFEFAF1ABF0A23E0A216B104E1F64AE057
:1008B00063E070E0CE0101960E945D0C60E873E099
:1008C000CE0108960E94050CBE016F5F7F4FCE01DE
:1008D00008960E94F70C6CE473E00E940D0DBC01B9
:1008E0008BEA94E00E94BD09CE0108960E94940B09
:1008F000CE0101960E94940B60917504709176046C
:100900004AE050E08BEA94E00E94E10A64EC73E074
:100910008BEA94E00E94120A10925C0480914404D5
:10092000882309F47AC06DB67EB610924404809193
:10093000490490914A04EDB7FEB7E81BF90B0FB6D6
:10094000F894FEBF0FBEEDBFADB6BEB62FEFA21A34
:10095000B20A60E070E085E494E00E942A0DFC0198
:100960008081823509F04CC00091490410914A04FD
:1009700041E050E065E474E0CE0101960E94BD0DB7
:1009800020E030E0A801B501CE0101960E944E0D95
:10099000CE0101960E94940B40E150E060E070E0CF
:1009A000C5010E943E204B015C0161E973E08BEAC6
:1009B00094E00E94F30920E130E0B501A4018BEA44
:1009C00094E00E94960A63EC73E08BEA94E00E9444
:1009D000120A23E0C22ED12C03E010E020EE31E019
:1009E000B501A40185E090E00E94F71A64E670E08A
:1009F00080E090E00E949206F1E0CF1AD10861F702
:100A00006EE771E085E494E00E94430C862D972DFB
:100A10000FB6F8949EBF0FBE8DBF0FB6F894FEBE02
:100A20000FBEEDBE2E960FB6F894DEBF0FBECDBF43
:100A3000DF91CF911F910F91FF90EF90DF90CF90BA
:100A4000BF90AF909F908F907F906F900895CF93BD
:100A5000DF93D1E014C08BEA94E00E94C507C82F51
:100A6000682F85E494E00E94E40CCB3311F0CA3087
:100A700011F4D09344048BEA94E00E94E9078BEAD6
:100A800094E00E949607892B31F7DF91CF9108956A
:100A90000F931F936CED8CE994E00E94830F00E0AC
:100AA00010E020E030E040E050E060E070E084E9F9
:100AB00094E00E94EA0D8DE794E00E9481114AE0E3
:100AC00069E08CE494E00E94E3166EE771E085E44F
:100AD00094E01F910F910C94050C85E494E00C9424
:100AE000940B8230E8F4E82FF0E0EE0FFF1FE2569F
:100AF000FB4F71836083813041F0809169008C7F6E
:100B0000842B80936900E89A089580916900440FCE
:100B1000551F440F551F837F842B80936900E99AEA
:100B200008951F920F920FB60F9211242F933F93A7
:100B30004F935F936F937F938F939F93AF93BF93E5
:100B4000EF93FF9380919E0490919F04892B29F04D
:100B5000E0919E04F0919F040995FF91EF91BF9160
:100B6000AF919F918F917F916F915F914F913F9145
:100B70002F910F900FBE0F901F9018951F920F92FC
:100B80000FB60F9211242F933F934F935F936F9360
:100B90007F938F939F93AF93BF93EF93FF93809136
:100BA000A0049091A104892B29F0E091A004F09178
:100BB000A1040995FF91EF91BF91AF919F918F9102
:100BC0007F916F915F914F913F912F910F900FBE49
:100BD0000F901F9018958E3008F08E5087702091DE
:100BE000060140E4249F90011124822B80937C0015
:100BF00080917A00806480937A0080917A0086FDEB
:100C0000FCCF2091780030917900932F80E0AC01E7
:100C1000422B9A01C90108951F920F920FB60F92AD
:100C200011242F933F938F939F93AF93BF93809102
:100C3000A2049091A304A091A404B091A5043091C2
:100C4000AA04232F2D5F2D3720F40196A11DB11D7D
:100C500005C0232F2A570296A11DB11D2093AA0477
:100C60008093A2049093A304A093A404B093A5043A
:100C70008091A6049091A704A091A804B091A90422
:100C80000196A11DB11D8093A6049093A704A09383
:100C9000A804B093A904BF91AF919F918F913F9108
:100CA0002F910F900FBE0F901F9018950F931F93C9
:100CB0008FB7F8940091A2041091A3042091A4048A
:100CC0003091A5048FBFB801C9011F910F910895FC
:100CD0000F931F939FB7F8940091A6041091A70457
:100CE0002091A8043091A90486B5A89B06C08F3F27
:100CF00021F00F5F1F4F2F4F3F4F9FBF322F212FEC
:100D0000102F0027080F111D211D311D42E0000F7B
:100D1000111F221F331F4A95D1F7B801C9011F9136
:100D20000F910895CF92DF92EF92FF92CF93DF93CE
:100D30006B017C010E946806EB010EC00E946806F0
:100D40006C1B7D0B683E734038F081E0C81AD108F7
:100D5000E108F108C851DC4FC114D104E104F104E9
:100D600069F7DF91CF91FF90EF90DF90CF900895DA
:100D7000019739F0880F991F880F991F02970197E3
:100D8000F1F70895789484B5826084BD84B581605C
:100D900084BD85B5826085BD85B5816085BDEEE683
:100DA000F0E0808181608083E1E8F0E01082808162
:100DB00082608083808181608083E0E8F0E08081D0
:100DC00081608083E1EBF0E0808184608083E0EBF0
:100DD000F0E0808181608083EAE7F0E080818460D8
:100DE0008083808182608083808181608083808134
:100DF000806880831092C1000895833069F028F4E0
:100E00008130A1F0823011F514C08630B1F0873006
:100E1000C1F08430D9F404C0809180008F7703C082
:100E2000809180008F7D80938000089584B58F77B6
:100E300002C084B58F7D84BD08958091B0008F7706
:100E400003C08091B0008F7D8093B0000895CF9350
:100E5000DF9390E0FC01E458FF4F4491FC01E05720
:100E6000FF4F8491882341F190E0880F991FFC0186
:100E7000E255FF4F25913491D9018C559F4FFC01CC
:100E800085919491C82FD92F9FB7F8948C916111B7
:100E900006C0409584238C938881842308C06230E7
:100EA00041F4242F209582238C938881842B88837E
:100EB00002C0842B8C939FBFDF91CF9108950F9335
:100EC0001F93CF93DF931F92CDB7DEB7282F30E06B
:100ED000F901E859FF4F8491F901E458FF4F14914B
:100EE000F901E057FF4F04910023D1F0882321F04E
:100EF00069830E94FD066981E02FF0E0EE0FFF1F7D
:100F0000EC55FF4F85919491DC019FB7F8948C913B
:100F1000611103C01095812301C0812B8C939FBF69
:100F20000F90DF91CF911F910F910895FC0184855F
:100F30009585FC01E05CFF4F20813181FC01EE5B77
:100F4000FF4F80819181281B390B2F733327C901F3
:100F50000895FC0184859585FC01E05CFF4F40818C
:100F60005181FC01EE5BFF4F208131814217530715
:100F700041F00190F081E02DE80FF91F208130E071
:100F800002C02FEF3FEFC9010895FC0184859585CC
:100F9000FC01E05CFF4F40815181FC01EE5BFF4FA3
:100FA000208131814217530781F0A081B181A80FC0
:100FB000B91F8C91208131812F5F3F4F2F733327D1
:100FC00031832083282F30E002C02FEF3FEFC9018B
:100FD0000895FC0186859785FC01E05CFF4FDC01EC
:100FE000AE5BBF4F408151812D913C9111974217CB
:100FF0005307C1F70895CF93DF93FC01868597854A
:10100000DC01A05CBF4F2D913C9111972F5F3F4FAA
:101010002F733327EC01CE5BDF4F488159812417B2
:101020003507D9F30D90BC91A02DA80FB91F6C9373
:10103000A685B785A05CBF4F11963C932E93A689D9
:10104000B7892C9181E090E0058C02C0880F991F30
:101050000A94E2F7282B2C9381E090E0DF91CF9166
:1010600008951F920F920FB60F9211242F933F9362
:101070004F938F939F93EF93FF934091C60080917E
:101080004E0590914F0501968F7399272091500539
:10109000309151058217930759F0E0914E05F09178
:1010A0004F05E25FFA4F408390934F0580934E05C2
:1010B000FF91EF919F918F914F913F912F910F90C1
:1010C0000FBE0F901F9018958BEA94E00E94960730
:1010D000892B11F00C94270508951F920F920FB6DB
:1010E0000F9211242F933F938F939F93EF93FF932E
:1010F00020910A0530910B0580910C0590910D050A
:101100002817390731F48091C1008F7D8093C10089
:1011100014C0E0910C05F0910D05E653FB4F2081C2
:1011200080910C0590910D0501968F7399279093EE
:101130000D0580930C052093C600FF91EF919F91C0
:101140008F913F912F910F900FBE0F901F90189588
:10115000CF92DF92EF92FF92CF93DF93EC016A017F
:101160007B01411581EE580761057105F9F0EC89A5
:10117000FD8981E090E00E8C02C0880F991F0A94CF
:10118000E2F7808360E079E08DE390E0A7019601CB
:101190000E948827215031094109510956954795E8
:1011A00037952795211580E1380798F0EC89FD895E
:1011B000108260E874E88EE190E0A70196010E9439
:1011C000882721503109410951095695479537958E
:1011D0002795E889F9893083EA89FB892083EE899C
:1011E000FF89408181E090E09C010A8C02C0220FBF
:1011F000331F0A94E2F7422B4083EE89FF89408136
:101200009C010B8C02C0220F331F0A94E2F7422B81
:101210004083EE89FF8940819C010C8C02C0220F23
:10122000331F0A94E2F7422B4083EE89FF89208125
:101230000D8C02C0880F991F0A94E2F780958223D3
:101240008083DF91CF91FF90EF90DF90CF90089552
:101250001092AE041092AD0488EE93E0A0E0B0E0EE
:101260008093AF049093B004A093B104B093B20400
:101270008BEC93E09093AC048093AB048EE095E00C
:101280009093B8048093B7048AEC94E09093BA04E6
:101290008093B90485EC90E09093BC048093BB04E8
:1012A00084EC90E09093BE048093BD0480EC90E0C9
:1012B0009093C0048093BF0481EC90E09093C204AB
:1012C0008093C10486EC90E09093C4048093C3049F
:1012D00084E08093C50483E08093C60487E0809314
:1012E000C70485E08093C80481E08093C904089511
:1012F0000E94C2060E94BC01C4E6D8E00E945602C9
:101300002097E1F30E946408F9CFCF92DF92EF9229
:10131000FF920F931F93CF93DF936C01EB017A0140
:10132000E60EF71E00E010E00BC06991D601ED91CA
:10133000FC910190F081E02DC6010995080F191F5D
:10134000CE15DF0591F7C801DF91CF911F910F9165
:10135000FF90EF90DF90CF900895DB010D9000207B
:10136000E9F7AD0141505109461B570BDC01ED91E6
:10137000FC910280F381E02D0994AF92BF92CF924D
:10138000DF92EF92FF920F931F93CF93DF937C0135
:101390006B0100E010E0C0E0D0E011C0D701ED919A
:1013A000FC91A080B180B801C6010E943D0D682F5C
:1013B000C701F5010995C80FD91F0F5F1F4FD6014F
:1013C00014968D919C9115970817190738F3CE0143
:1013D000DF91CF911F910F91FF90EF90DF90CF9011
:1013E000BF90AF9008950C94AD09DC01ED91FC9194
:1013F0000190F081E02D09940F931F93CF93DF9319
:10140000EC016DE00E94F5098C016AE0CE010E94BA
:10141000F5099C01200F311FC901DF91CF911F9168
:101420000F9108950F931F93CF93DF93EC010E94C8
:10143000AD098C01CE010E94FC099801280F391FCB
:10144000C901DF91CF911F910F9108954F925F9243
:101450006F927F929F92AF92BF92CF92DF92EF9264
:10146000FF920F931F93CF93DF93CDB7DEB7A19772
:101470000FB6F894DEBF0FBECDBF5C016A017B01E1
:10148000922E19A281E0821710F08AE0982E8E0128
:101490000F5D1F4F492C512C612C712CC701B601D7
:1014A000A30192010E9488278C2D929E80191124FD
:1014B000015011098A3014F4805D01C0895CF80183
:1014C000808369017A01C114D104E104F10431F788
:1014D000B801C5010E94AD09A1960FB6F894DEBF10
:1014E0000FBECDBFDF91CF911F910F91FF90EF9075
:1014F000DF90CF90BF90AF909F907F906F905F9064
:101500004F9008952115310541F4DC01ED91FC91D6
:101510000190F081E02D642F09940C94260A9A0121
:10152000462F50E060E070E00C94820ACF92DF9288
:10153000EF92FF920F931F93CF93DF93EC016A0119
:101540007B012115310579F4E881F9810190F08161
:10155000E02D642FDF91CF911F910F91FF90EF90BD
:10156000DF90CF9009942A30310519F477FD0EC031
:101570002AE0B701A601CE01DF91CF911F910F9113
:10158000FF90EF90DF90CF900C94260A6DE20E94BE
:10159000F5098C0144275527BA014C195D096E09DC
:1015A0007F092AE0CE010E94260A080F191FC801F0
:1015B000DF91CF911F910F91FF90EF90DF90CF902F
:1015C00008959A01AB01662757FD6095762F0C941C
:1015D000960A7F928F929F92AF92BF92CF92DF92A4
:1015E000EF92FF920F931F93CF93DF938C014A01E9
:1015F0005B01F22E20E030E0A901C501B4010E9498
:10160000942287FF0AC06DE2C8010E94F509EC012F
:10161000B7FAB094B7F8B09402C0C0E0D0E0E12CC3
:1016200060E070E080E09FE307C020E030E040E24F
:1016300051E40E949822E394EF10F7CF262F372F22
:10164000482F592FC501B4010E943022762E872ED3
:10165000982EA92E0E940523B62EC72ED82EE92E2D
:101660000E9431239B01AC01672D782D892D9A2D85
:101670000E942F22A62E972E882E792E2AE04B2DFF
:101680005C2D6D2D7E2DC8010E94260AC80FD91F22
:10169000FF20B9F167ED73E0C8010E94AD09C80FE2
:1016A000D91F2FC020E030E040E251E46A2D792DAF
:1016B000882D972D0E942524762EC72ED82EE92E10
:1016C0000E9400234B01AA2497FCA094BA2C2AE084
:1016D00030E0B501A401C8010E94960AC80FD91FC5
:1016E000C501B4010E9433239B01AC01672D7C2D01
:1016F0008D2D9E2D0E942F22A62E972E882E792E7C
:10170000FA94F110CFCFCE01DF91CF911F910F91BD
:10171000FF90EF90DF90CF90BF90AF909F908F9011
:101720007F9008950C94E90AFC01808191810C94CA
:10173000DA1ECF93DF93EC0188819981009711F035
:101740000E94DA1E198218821D821C821B821A8254
:10175000DF91CF9108950F931F93CF93DF93EC0107
:101760008B016F5F7F4F888199810E94761F009760
:1017700031F0998388831B830A8381E001C080E074
:10178000DF91CF911F910F910895CF93DF93EC01DB
:1017900088819981892B31F08A819B8186179707EF
:1017A00008F00CC0CE010E94AB0B882349F08C815D
:1017B0009D81892B19F4E881F981108281E001C0B3
:1017C00080E0DF91CF910895EF92FF920F931F93E6
:1017D000CF93DF93EC017B018A01BA010E94C50B14
:1017E000811104C0CE010E94990B07C01D830C8398
:1017F000B701888199810E947221CE01DF91CF913A
:101800001F910F91FF90EF900895DC0111961C92AB
:101810001E9213961C921E92129715961C921E925F
:10182000149716961C926115710559F0DB010D9005
:101830000020E9F7AD0141505109461B570B0C94AC
:10184000E40B0895CF93DF93EC01FB018617970714
:1018500061F0608171816115710529F044815581C4
:101860000E94E40B02C00E94990BCE01DF91CF9140
:101870000895FC0111821082138212821582148253
:1018800016820C94220CCF93DF93D82FC92F6115A9
:10189000710561F0DB010D900020E9F7AD014150C9
:1018A0005109461B570B0E94E40B02C00E94990B82
:1018B0008D2F9C2FDF91CF9108950F931F93CF937E
:1018C000DF93CDB7DEB762970FB6F894DEBF0FBED9
:1018D000CDBF8C01CB01F8011182108213821282DC
:1018E00015821482168250E0BE016F5F7F4F0E9406
:1018F0008821BE016F5F7F4FC8010E94430C629632
:101900000FB6F894DEBF0FBECDBFDF91CF911F9110
:101910000F9108950F931F93CF93DF93CDB7DEB749
:1019200029970FB6F894DEBF0FBECDBF8C01862F6E
:10193000F80111821082138212821582148216829B
:1019400050E0BE016F5F7F4F90E00E94A921BE0171
:101950006F5F7F4FC8010E94430C29960FB6F89421
:10196000DEBF0FBECDBFDF91CF911F910F910895C4
:10197000EF92FF920F931F93CF93DF93EC017B01C4
:101980000C811D816115710511F480E016C04115AF
:10199000510591F0040F151FB8010E94C50B882353
:1019A000A1F3288139818C819D81B701820F931F1A
:1019B0000E9472211D830C8381E0DF91CF911F91E2
:1019C0000F91FF90EF900895CF93DF9300D0CDB7A4
:1019D000DEB769831A8241E050E0BE016F5F7F4F3E
:1019E0000E94B80C0F900F90DF91CF910895CF9384
:1019F000DF93D82FC92FFB0144815581608171810C
:101A00000E94B80C811104C08D2F9C2F0E94990B4D
:101A10008D2F9C2FDF91CF910895CF93DF93D82FF7
:101A2000C92F6115710569F0DB010D900020E9F700
:101A3000AD0141505109461B570B0E94B80C811152
:101A400004C08D2F9C2F0E94990B8D2F9C2FDF910E
:101A5000CF910895FC01248135816217730720F42A
:101A600080819181009729F41092520562E575E01A
:101A700002C0680F791FCB010895FC0124813581D4
:101A80006217730748F480819181009729F0FC0167
:101A9000E60FF71F8081089580E008950F931F934C
:101AA000CF93DF93EB0141155105E9F02097D9F071
:101AB000FC01048115812017310708F013C0415043
:101AC0005109021B130B4017510708F48A01FC014E
:101AD00060817181620F731FA801CE010E9479217C
:101AE000C00FD11F1882DF91CF911F910F910895E0
:101AF000BF92CF92DF92EF92FF920F931F93CF93FB
:101B0000DF936C017B01EA0189012417350720F47A
:101B10008D2FE901042F182F6EE771E0C6010E9496
:101B2000050CD70114968D919C9115978C179D07E4
:101B3000C8F08017910708F48C01D701ED91FC9152
:101B40001197E00FF11FB08010826D917C916C0FA6
:101B50007D1FC6010E94430CD701ED91FC91E00F5F
:101B6000F11FB082C601DF91CF911F910F91FF90BD
:101B7000EF90DF90CF90BF900895CF93DF93EC016B
:101B8000FB01248135810E94780DCE01DF91CF9138
:101B9000089520915B0530915C0540915D05509161
:101BA0005E0560915F05709160058091610590917F
:101BB000620510925B0510925C0510925D05109213
:101BC0005E0510925F0510926005109261051092FB
:101BD000620508950F931F93FC01008311832283F4
:101BE000338344835583668377831F910F910895D0
:101BF000CF92DF92EF92FF920F931F93CF93DF93D9
:101C0000FB0120E030E040E050E060E070E0C12CFB
:101C1000D12CA1E0B0E001977C0123C002811381A7
:101C2000C481D581013283E0180754F0C032D3401B
:101C3000B4F4C60101E00E94FD2721606C010FC0D1
:101C40000032134061F0C132D3404CF0C60101E0D4
:101C50000E94FD272E7F60E070E0C12CD12C1296EF
:101C60003496AE15BF05D4F220935B0530935C0526
:101C700040935D0550935E0560935F05709360052A
:101C8000C0926105D0926205DF91CF911F910F91B3
:101C9000FF90EF90DF90CF90089520915B053091F9
:101CA0005C0540915D0550915E0560915F05709106
:101CB00060058091610590916205A0E00E94242852
:101CC00021F081E090915A05911180E008956EE72E
:101CD00071E083E595E00C94050C83E595E00C94A8
:101CE000940B2F923F924F925F926F927F928F92BE
:101CF0009F92AF92BF92CF92DF92EF92FF920F939B
:101D00001F93CF93DF93CDB7DEB728970FB6F89424
:101D1000DEBF0FBECDBF0E9468062B013C01809143
:101D20006706909168069201281B390B38872F832C
:101D30002938334108F468C0A7E0B1E0BC83AB8325
:101D4000E3E6F5E0FA83E983AB81BC810D911D9157
:101D5000BC83AB830115110509F446C0E0916B0605
:101D6000F0916C06FE83ED83BF0180E090E00E945D
:101D700031234B015C01B80180E090E00E943123E7
:101D80006B017C012DEC3CEC4CEC5DE30E942524C6
:101D90001B018C01762F272F332D402F512FC70188
:101DA000B6010E942F229B01AC01C501B4010E9423
:101DB00021241816CCF4222D332D402F512FC7018A
:101DC000B6010E9430229B01AC01C501B4010E9402
:101DD000942287FF09C0A981BA81ED91FC9167E641
:101DE00075E08D819E810995E981FA813296FA83A9
:101DF000E9832B813C812B50314009F0A5CF109213
:101E00006C0610926B0605C0AF81B885AB3FB1057B
:101E100090F080916B0690916C06FC01EE0FFF1F15
:101E2000E959FA4F2F8138853183208301969093A9
:101E30006C0680936B0680916B0690916C068038DF
:101E4000910521F410926C0610926B064092670681
:101E5000509268066092690670926A0628960FB6DC
:101E6000F894DEBF0FBECDBFDF91CF911F910F91D0
:101E7000FF90EF90DF90CF90BF90AF909F908F90AA
:101E80007F906F905F904F903F902F90089580913A
:101E9000630590916405892B49F0809165059091C7
:101EA0006605892B89F481E090E002C080E090E033
:101EB000880F991FFC01ED59FA4F51834083FC01B3
:101EC000E95FFE4F718360830895CF93DF93C62F40
:101ED000D62FD250D23098F4FC01608360E08C2F72
:101EE0000E94270760E08C2F0E945F0741E050E0CE
:101EF00061E77EE08D2F0E94710581E001C080E0E6
:101F0000DF91CF91089560936D0608952091760634
:101F100030917706409178065091790660917A0663
:101F200070917B0680917C0690917D0610927606DA
:101F300010927706109278061092790610927A061F
:101F400010927B0610927C0610927D0608950F93E6
:101F500004E10E940C28E1E0A0E00E94242809F49A
:101F6000E0E08E2F0F9108950F9308E00E940C2857
:101F70003F7040E050E060E070E080E090E00E9460
:101F80006E2320E030E040E251E40E9498220F915D
:101F90000895822F08955F926F927F928F929F9201
:101FA000AF92BF92CF92DF92EF92FF920F931F9367
:101FB000CF93DF93CDB7DEB765970FB6F894DEBF4A
:101FC0000FBECDBFE22F632E742E852E962EB72F17
:101FD000A82FF92F08E10E940C28522EA0906D0620
:101FE00030E040E050E060E070E080E090E0B12C54
:101FF000C12CD12CE12CF12C00E010E00E941B2818
:1020000069F140E1652DCE010F960E945D0C60ECF8
:1020100073E0CE0108960E94050CBE01615F7F4F00
:10202000CE0108960E94F70CBC01CE0101960E94D9
:10203000390CBE016F5F7F4F8EE696E00E94220C46
:10204000CE0101960E94940BCE0108960E94940B3B
:10205000CE010F960E94940B83E090C0E53698F075
:102060004AE06E2FCE0101960E948A0CBE016F5F7E
:102070007F4F8EE696E00E94220CCE0101960E94D0
:10208000940B81E07BC02E2F362D472D582D692DC6
:102090007B2F8A2F9F2F08E00E940C283F7040E082
:1020A00050E060E070E080E090E00E946E2320E06D
:1020B00030E040E251E40E9498227B018C0120E054
:1020C00030E040EA51EC7F2D912F0E94942287FD51
:1020D0000DC020E030E048E452E46E2D7F2D802FCB
:1020E000912F0E94212418160CF047C020E030E008
:1020F00040E251E46E2D7F2D802F912F0E942524E8
:102100000E940023CB016AE070E00E9474274AE03D
:10211000BC01CE0101960E945D0C6E2D7F2D802F9B
:10212000912F0E9400234AE0CE010F960E945D0C81
:10213000BE01615F7F4FCE0108960E94390C67EDAA
:1021400073E0CE0108960E940D0DBE016F5F7F4FB8
:102150000E94F70CBC018EE696E00E94220CCE0194
:1021600008960E94940BCE010F960E94940BCE010C
:1021700001960E94940B82E001C080E065960FB644
:10218000F894DEBF0FBECDBFDF91CF911F910F91AD
:10219000FF90EF90DF90CF90BF90AF909F908F9087
:1021A0007F906F905F900895EF92FF920F931F932F
:1021B000CF93DF937C01FB01329620E030E040E0DA
:1021C00050E060E070E080E090E0C1E0D0E019C055
:1021D000008111813296D801A93B1BE0B1072CF098
:1021E00001E00E94FD2721600BC0A93EB34044F0EE
:1021F00001E00E94FD272E7F60E070E080E090E02B
:102200002196CE15DF0524F32093760630937706CA
:10221000409378065093790660937A0670937B0614
:1022200080937C0690937D06DF91CF911F910F9153
:10223000FF90EF90089520917606309177064091B7
:1022400078065091790660917A0670917B068091AC
:102250007C0690917D06A0E00E94242821F081E078
:1022600090917506911180E008950F931F93CF937D
:10227000DF93CDB7DEB727970FB6F894DEBF0FBE5A
:10228000CDBF8C0180917506823041F0833019F00A
:102290008130E1F406C069EE73E005C06CEF73E0D5
:1022A00002C062E174E0CE0101960E94050C6EE668
:1022B00076E0CE0101960E94F70CBC01C8010E9495
:1022C000390CCE0101960E94940B05C065E274E0C2
:1022D000C8010E94050CC80127960FB6F894DEBF0E
:1022E0000FBECDBFDF91CF911F910F9108956EE783
:1022F00071E08EE696E00C94050C8EE696E00C9468
:10230000940B0895CF92DF92EF92FF92FC018589A2
:102310009689481B590B61097109A389B4899A01EF
:10232000AB010E943D276B017C018FE0F594E7949F
:10233000D794C7948A95D1F765857685882777FDE8
:102340008095982F2BE0660F771F881F991F2A957D
:10235000D1F727853089442737FD4095542F2C0D20
:102360003D1D4E1D5F1D0E94AA272C0D3D1D4E1DBB
:102370005F1DB901CA01FF90EF90DF90CF900895E3
:10238000CF93C62F67E770E08EE796E00E94DB1AD6
:102390006C2F8EE796E00E94771A8EE796E00E94F7
:1023A000F01A67E770E08EE796E00E94DB1A41E0E2
:1023B00050E067E770E08EE796E00E94CE1A8EE765
:1023C00096E00E94241AC82F8EE796E00E94F01A29
:1023D0008C2FCF910895CF93DF93C62F67E770E0DE
:1023E0008EE796E00E94DB1A6C2F8EE796E00E9443
:1023F000771A8EE796E00E94F01A67E770E08EE7A2
:1024000096E00E94DB1A42E050E067E770E08EE75A
:1024100096E00E94CE1A8EE796E00E94241AD82FEA
:1024200080E0C82F8EE796E00E94241AC82BD92B93
:102430008EE796E00E94F01ACE01DF91CF910895C9
:10244000CF93DF93EC01643008F063E068838EE79C
:1024500096E00E94B71A60EDCE010E94C01185354A
:1024600009F044C06AEACE010E94EB119A83898385
:102470006CEACE010E94EB119C838B836EEACE0145
:102480000E94EB119E838D8360EBCE010E94EB11C5
:102490009A8B898B62EBCE010E94EB119C8B8B8B0C
:1024A00064EBCE010E94EB119E8B8D8B66EBCE010F
:1024B0000E94EB1198878F8368EBCE010E94EB118D
:1024C0009A8789876AEBCE010E94EB119C878B87E4
:1024D0006CEBCE010E94EB119E878D876EEBCE01D7
:1024E0000E94EB11988B8F8781E001C080E0DF9123
:1024F000CF9108951F93CF93DF931F92CDB7DEB78F
:10250000162F67E770E08EE796E049830E94DB1A9A
:10251000612F8EE796E00E94771A4981642F8EE73B
:1025200096E00E94771A8EE796E00F90DF91CF91A8
:102530001F910C94F01ACF92DF92EF92FF920F93BB
:102540001F93CF93DF93EC0148814295440F440FD2
:10255000407C4C5C64EF0E947A128881811105C036
:1025600065E070E080E090E012C0813029F468E01E
:1025700070E080E090E00BC0823029F46EE070E003
:1025800080E090E004C06AE170E080E090E00E94AA
:10259000920666EFCE010E94EB116C01E12CF12C4A
:1025A000FE2CED2CDC2CCC2468EFCE010E94C01157
:1025B00097018601082B488188E090E0841B9109EF
:1025C00004C036952795179507958A95D2F7B801D7
:1025D000C901DF91CF911F910F91FF90EF90DF9094
:1025E000CF900895CF93DF93EC014EE264EF0E9409
:1025F0007A1265E070E080E090E00E94920666EF5B
:10260000CE01DF91CF910C94EB11CF93DF93EC01CE
:102610000E94F212AC0160E070E0CE010E948211D3
:10262000685F7F4F8F4F9F4F44E0959587957795D3
:1026300067954A95D1F70E94332320E030E040E2CD
:1026400051E40E949822DF91CF9108952F923F92FA
:102650004F925F926F927F928F929F92AF92BF92B2
:10266000CF92DF92EF92FF920F931F93CF93DF935E
:10267000CDB7DEB72C970FB6F894DEBF0FBECDBF37
:102680001C010E94F2128C01C1010E949B126987F9
:102690007A878B879C87A80160E070E0C1010E9467
:1026A00082114B015C0180EA881A8FE0980AA10828
:1026B000B108A5019401C501B4010E945027DC01B5
:1026C000CB010CE0B595A795979587950A95D1F71D
:1026D00089839A83AB83BC83D1011196CD90DC9022
:1026E00012971C9115960D90BC91A02D0E94482721
:1026F0002B013C018DE075946794579447948A951B
:10270000D1F7F101A781B08529813A814B815C81A4
:102710000E944827BB2797FDB095AB2F480E591E46
:102720006A1E7B1EF2E04F0E511C611C711C32E0D0
:1027300075946794579447943A95D1F780E8580E6A
:10274000611C711CF101A189B289A30192010E944F
:102750003D27DC01CB014FE0B695A795979587956E
:102760004A95D1F78D839E83AF83B887EE24D7FC3B
:10277000E094FE2C52E0CC0CDD1CEE1CFF1C5A95A4
:10278000D1F7A185B28529813A814B815C810E9474
:1027900048272B013C016BE075946794579447944C
:1027A0006A95D1F7A381B481A50194010E944827BD
:1027B000EBE09595879577956795EA95D1F7460E65
:1027C000571E681E791EC40CD51CE61CF71C012E72
:1027D00004C0CC0CDD1CEE1CFF1C0A94D2F792E066
:1027E000C90ED11CE11CF11CC701B60124E030E088
:1027F00040E050E00E94AA2789859A85AB85BC8578
:10280000821B930BA40BB50B9C01AD0160E573EC2F
:1028100080E090E004C096958795779567951A9526
:10282000D2F70E94502797FD0DC0660F771F881FB3
:10283000991F2D813E814F8158850E94882749012B
:102840005A010CC02D813E814F8158850E948827F6
:1028500049015A01880C991CAA1CBB1C9927B7FC7A
:102860009A958B2D7A2D692D9B01AC010E945027E2
:102870009B01AC01AEEDBBE00E943D276C01FF2443
:10288000D7FCF094EF2CA3E4B3EEA50194010E94D1
:102890004B27BB2797FDB095AB2FC80ED91EEA1E5C
:1028A000FB1E9FECC90E9EE0D91EE11CF11CA4E0AA
:1028B000F594E794D794C794AA95D1F7C80CD91C7E
:1028C000EA1CFB1CB601C7012C960FB6F894DEBFBC
:1028D0000FBECDBFDF91CF911F910F91FF90EF9071
:1028E000DF90CF90BF90AF909F908F907F906F9030
:1028F0005F904F903F902F9008958EBD0DB407FECE
:10290000FDCF8EB508950F931F93CF93DF931F9242
:10291000CDB7DEB78C0181E069830E94231E80E081
:102920000E942C1E80E00E94311E6981F801818185
:102930000F90DF91CF911F910F910C945F07FC01D5
:1029400080810C945F07CF92DF92EF92FF920F93FA
:102950001F93CF93DF9300D0CDB7DEB78C01E62E67
:10296000F22E60E070E049835A830E9483148E2D1A
:102970008F710E947D14E82E4981C42E5A81D52E74
:10298000F40E06C08FEF0E947D14F60181936F0153
:10299000FC10F8CF61E070E0C8010E9483148E2D16
:1029A0000F900F90DF91CF911F910F91FF90EF90BB
:1029B000DF90CF9008951F93CF93DF93EC01162FF4
:1029C00060E070E00E948314812F8F710E947D145B
:1029D0008FEF0E947D14182F61E070E0CE010E94FD
:1029E0008314812FDF91CF911F910895CF92DF92B1
:1029F000EF92FF920F931F93CF93DF9300D0CDB749
:102A0000DEB78C01E62EF22E60E070E049835A8337
:102A10000E9483148E2D8F7180620E947D14E82E97
:102A20004981C42E5A81D52EF40E05C0F60181913C
:102A30006F010E947D14FC10F9CF61E070E0C801C5
:102A40000E9483148E2D0F900F90DF91CF911F91D4
:102A50000F91FF90EF90DF90CF900895EF92FF924B
:102A60001F93CF93DF931F92CDB7DEB77C01162F54
:102A700060E070E049830E948314812F8F7180622F
:102A80000E947D14182F4981842F0E947D1461E0DB
:102A900070E0C7010E948314812F0F90DF91CF91C6
:102AA0001F91FF90EF900895BF92CF92DF92EF9227
:102AB000FF920F931F93CF93DF938C01D62EB72EE7
:102AC000FC01F480E42EF41608F4EF2CF801868162
:102AD000811102C0FE1801C0F12C60E070E0C80155
:102AE0000E94831481E60E947D14C82ECD2DDB2D1B
:102AF000ED0C04C08FEF0E947D148993EC12FACF85
:102B000004C08FEF0E947D14FA94F110FACF61E0B7
:102B100070E0C8010E9483148C2DDF91CF911F912A
:102B20000F91FF90EF90DF90CF90BF9008951F938B
:102B3000CF93DF93EC0160E070E00E94831482EE9B
:102B40000E947D14182F61E070E0CE010E94831472
:102B5000812FDF91CF911F9108951F93CF93DF9322
:102B6000EC0160E070E00E94831481EE0E947D140D
:102B7000182F61E070E0CE010E948314812FDF9155
:102B8000CF911F9108951F93CF93DF93EC0160E0E5
:102B900070E00E9483148FEF0E947D14182F61E073
:102BA00070E0CE010E948314812FDF91CF911F919D
:102BB0000895862F90E0262F21701F922F939595D0
:102BC0008795877099279F938F9364FB882780F957
:102BD0001F928F9365FB882780F91F928F9366FB66
:102BE000882780F91F928F931F926F9388EB90E054
:102BF0009F938F930E940A228DB79EB70E960FB6B1
:102C0000F8949EBF0FBE8DBF0895AF92BF92DF9222
:102C1000EF92FF920F931F93CF93DF9300D0CDB726
:102C2000DEB78C01F42EE22ECB0169837A830E94F9
:102C3000602169817A81089710F489E001C080E001
:102C40001F928F937F936F93E8E2F1E0FF93EF93EE
:102C50000E940A22EF0C0F900F900F900F900F9090
:102C60000F9030E3A32E31E0B32E11C0DF2CD394AC
:102C70006F2DC8010E94DB141F928F93BF92AF92F9
:102C80000E940A220F900F900F900F90FD2CFE10C3
:102C9000EDCF88E391E09F938F930E940A220F90DB
:102CA0000F900F900F90DF91CF911F910F91FF9098
:102CB000EF90DF90BF90AF9008956F927F928F92C8
:102CC0009F92AF92BF92CF92DF92EF92FF920F93BB
:102CD0001F93CF93DF93CDB7DEB727970FB6F89446
:102CE000DEBF0FBECDBF4C01142F722ECB016E8301
:102CF0007F830E9460216E817F81089710F489E0B4
:102D000001C080E01F928F937F936F93EBE3F1E01C
:102D1000FF93EF930E940A22710E0F900F900F9075
:102D20000F900F900F90EE24E394F12CEC0EFD1E0B
:102D300053E4C52E51E0D52E67E4A62E61E0B62EF1
:102D400023C0612E639425E0A701612FC4010E9476
:102D5000A314DF92CF920E940A228E010A5F1F4FB6
:102D60000F900F900DC0F80182918F011F928F93E9
:102D7000BF92AF920E940A220F900F900F900F9077
:102D80000E151F0581F7162D1711DBCF8CE491E08E
:102D90009F938F930E940A220F900F9027960FB651
:102DA000F894DEBF0FBECDBFDF91CF911F910F9181
:102DB000FF90EF90DF90CF90BF90AF909F908F905B
:102DC0007F906F900895FC016083418381E082834E
:102DD000138280E284831582168210861186128601
:102DE000138614861586168617860895462F603832
:102DF00008F04FE765E00C942E15CF93DF93EC01BC
:102E000060E00E94DB14482F436060E0CE010E9426
:102E10002E1540E767E0CE010E942E1528853985E2
:102E20004A855B856C857D858E859F85A0E00E94A7
:102E3000242841F0AE01485F5F4F25E06AE0CE01F3
:102E40000E94F614CE010E949715CE010E94AD1586
:102E500061E070E0CE010E949F1482E890E0DF9173
:102E6000CF910C94B8061F93CF93DF93EC0160E0F1
:102E700070E00E94831480E60E947D148FEF0E9410
:102E80007D14182F61E070E0CE010E948314812F21
:102E9000DF91CF911F910895CF93DF93EC010E94B2
:102EA000541567E1CE010E94DB148170DF91CF9150
:102EB0000895EF92FF920F931F93CF93DF93EB014F
:102EC0008A01790140E767E00E942E1585FB99276A
:102ED00090F9988384FB992790F9F801908386FBF9
:102EE000882780F9F7018083DF91CF911F910F919F
:102EF000FF90EF900895EF92FF920F931F93CF935F
:102F0000DF93CDB7DEB728970FB6F894DEBF0FBEBC
:102F1000CDBF7C0109831A832B833C834D835E8361
:102F20006F83788725E0AE014F5F5F4F6AE00E94B4
:102F3000F61425E0AE014F5F5F4F60E1C7010E94CC
:102F4000F614F7014481413208F040E261E1C70123
:102F50000E942E1528960FB6F894DEBF0FBECDBF87
:102F6000DF91CF911F910F91FF90EF900895BF9245
:102F7000CF92DF92EF92FF920F931F93CF93DF9345
:102F8000CDB7DEB728970FB6F894DEBF0FBECDBF22
:102F90006C01B62EE982FA820B831C832D833E835B
:102FA0004F83588761110AC0F601E086F1860287D7
:102FB0001387248735874687578707C0F6E0F617BB
:102FC00008F434C081E0681307C0EB2DF0E0E35F44
:102FD000FD4F649125E006C0E62FF0E0E35FFD4F72
:102FE000649121E0AE014F5F5F4FC6010E94F6146D
:102FF0000B2D10E0F801ED5EFD4F6491F601448168
:10300000C6010E942E1562E0C6010E94DB14F80181
:10301000E75EFD4F049141E050E001C0440F0A9586
:10302000EAF7482B62E0C6010E942E1528960FB6DB
:10303000F894DEBF0FBECDBFDF91CF911F910F91EE
:10304000FF90EF90DF90CF90BF900895CF93DF93E4
:10305000EC0160E070E00E94831480E50E947D1422
:1030600083E70E947D1461E070E0CE01DF91CF9193
:103070000C948314CF93DF93EC016DE10E94DB1479
:10308000482F44606DE1CE010E942E156DE1CE0106
:103090000E94DB1481110DC0CE010E9426186DE143
:1030A000CE010E94DB14482F44606DE1CE010E94E6
:1030B0002E156CE1CE010E94DB14482F4F636CE1AA
:1030C000CE010E942E1581E08E83DF91CF9108956D
:1030D000662311F04FE301C040E061E00C942E152F
:1030E0000F931F93CF93DF938C01EB0166E00E9457
:1030F000DB14482F497FC330D10509F40EC0C2301C
:10310000D10511F444600AC0C130D10511F4426008
:1031100005C0209719F0249709F4466066E0C801BD
:10312000DF91CF911F910F910C942E1566E00E94B4
:10313000DB148670863049F0843051F021E030E0B5
:10314000823041F020E030E005C023E030E002C0F2
:1031500022E030E0C9010895EF92FF920F931F9390
:10316000CF93DF931F92CDB7DEB77C018B0166E072
:103170000E94DB14F7011282282F277D02301105EF
:1031800011F4206207C00130110521F481E0F7013C
:1031900082832860422F66E0C70129830E942E1592
:1031A00066E0C7010E94DB142981821721F0F70134
:1031B000128280E001C081E00F90DF91CF911F91DA
:1031C0000F91FF90EF90089566E00E94DB148872E3
:1031D000803239F021E030E0883029F020E030E022
:1031E00002C022E030E0C90108950F931F93CF93EE
:1031F000DF93EC018B0160E00E94DB14482F437FDA
:103200000115110531F00130110511F4486001C0BC
:103210004C6060E0CE01DF91CF911F910F910C9433
:103220002E15CF93DF93EC0161E088810E94270780
:1032300061E089810E9427070E94041E60E070E01F
:10324000CE010E949F1461E070E0CE010E948314C1
:1032500065E070E080E090E00E9492064FE464E058
:10326000CE010E942E1563E070E0CE010E9470181E
:1032700062E070E0CE010E94AC18882311F081E07A
:103280008B8360E070E0CE010E94AC1862E070E0D9
:10329000CE010E94F51840E06CE1CE010E942E158F
:1032A00040E767E0CE010E942E156CE4CE010E943B
:1032B000F616CE010E949715CE01DF91CF910C94A6
:1032C000AD1560E00E94DB1483FF05C082FF06C0DD
:1032D00022E030E005C020E030E002C021E030E034
:1032E000C9010895CF93DF93EC010E94C315682FA5
:1032F000CE010E94D91522E04AE06FE471E0CE01D0
:103300000E945D1624E04CE06CE571E0CE010E9465
:10331000051621E040E169E671E0CE010E945D16EC
:1033200026E041E161E771E0CE010E94051621E04F
:1033300041E06CE771E0CE010E94051621E042E019
:1033400062E871E0CE010E94051621E045E06CE8DC
:1033500071E0CE010E94051621E046E062E971E0CD
:10336000CE010E94051621E040E06BE971E0CE013C
:103370000E94051622E04CE162EA71E0CE010E9453
:103380000516CE010E94E418880F991F80559E4FA4
:10339000FC01859194919F938F9386EB91E09F938D
:1033A0008F930E940A22EB81F0E0EE0FFF1FE8539B
:1033B000FE4F859194919F938F938CEC91E09F9316
:1033C0008F930E940A22CE010E946119880F991FD3
:1033D00085529E4FFC01859194919F938F9381EE2E
:1033E00091E09F938F930E940A22CE010E9496182B
:1033F000880F991F8C509E4FFC01859194919F934B
:103400008F938CEF91E09F938F930E940A228DB748
:103410009EB740960FB6F8949EBF0FBE8DBFDF914A
:10342000CF9108954F7020E1629FB0011124462B87
:1034300064E00C942E152091AE0630E08091AF062A
:10344000281B3109C90108958091AF069091AE06FD
:10345000891750F4E82FF0E0E055F94F208130E073
:103460008F5F8093AF0602C02FEF3FEFC901089531
:10347000E091AF068091AE06E81730F4F0E0E05539
:10348000F94F208130E002C02FEF3FEFC9010895CE
:103490000895CF92DF92EF92FF920F931F93CF93F5
:1034A000DF937C01CB018A0120918A06222391F0CF
:1034B000EB016B01C40ED51E09C06991D701ED91D6
:1034C000FC910190F081E02DC7010995CC15DD0537
:1034D000A1F703C0642F0E94AB1CC801DF91CF91FC
:1034E0001F910F91FF90EF90DF90CF900895CF93B1
:1034F000DF931F92CDB7DEB7698320918A0622231E
:10350000D1F020918B06203240F021E030E0FC0128
:103510003383228320E030E015C080918C06E82FB1
:10352000F0E0E357F94F998190838F5F80938C0689
:1035300080938B0605C061E0CE0101960E94AB1C12
:1035400021E030E0C9010F90DF91CF910895FC0197
:103550001382128248EE53E060E070E044835583AA
:103560006683778387E394E0918380830895109244
:10357000AF061092AE0610928C0610928B060C9439
:10358000F51B862F413208F040E260EB76E00E94A6
:10359000131C1092AF068093AE06089521E00C94A0
:1035A000C11A81E080938A066093AD0610928C0662
:1035B00010928B0608950C94D11A0F93062F21E0D8
:1035C00040918B066DE876E08091AD060E94581C14
:1035D00010928C0610928B0610928A060F91089515
:1035E00061E00C94DD1A8EE796E00C94A71A2F92F6
:1035F0003F924F925F926F927F928F929F92AF9283
:10360000BF92CF92DF92EF92FF920F931F93CF93CF
:10361000DF9300D000D01F92CDB7DEB7782E3D8368
:103620002C836F707727ACE0EA2EF12C812C912C43
:103630005401B3E02B2E312C412C512CF2E0880C9C
:10364000991CAA1CBB1CFA95D1F7CB01BA01A201A7
:1036500091010E948827FA01862A972AA82AB92A66
:10366000A901BF0121E0E21AF10841F7C801877002
:10367000992701E010E002C0000F111F8A95E2F7C0
:103680008C819D81880F991F4C815D81840F951FCE
:103690008983692E8FE1849F9001859F300D1124CD
:1036A0003B832A83E12CF12C84C0140125017CE0AA
:1036B000C72ED12CD201C10183709927AA27BB271D
:1036C00081309105A105B10531F130F00297A105D6
:1036D000B10509F04FC02EC061E0872D0E945F0741
:1036E0008C819D810E94B80660E0872D0E945F0753
:1036F0008981962D0E94B80661E0872D0E945F07A0
:103700008C819D810E94B80660E0872D0E945F0732
:103710008981962D2DC061E0872D0E945F078981E8
:10372000962D0E94B80660E0872D0E945F078C816D
:103730009D810EC061E0872D0E945F078C819D8175
:103740000E94B80660E0872D0E945F078981962D50
:103750000E94B80661E0872D0E945F078981962D3F
:103760000E94B80660E0872D0E945F078C819D81D2
:103770000E94B80662E056944794379427946A955D
:10378000D1F731E0C31AD10809F094CF61E0872D59
:103790000E945F078C819D810E94B80660E0872DA2
:1037A0000E945F078A819B810E94B8064FEFE41A4E
:1037B000F40AE016F10609F078CF0F900F900F9001
:1037C0000F900F90DF91CF911F910F91FF90EF908D
:1037D000DF90CF90BF90AF909F908F907F906F9031
:1037E0005F904F903F902F9008951092D90681E0FE
:1037F0008093D7061092D60661E082E10E945F07AF
:1038000061E083E10E945F07E9EBF0E080818E7F59
:10381000808380818D7F808388E48093B80085E4F5
:103820008093BC000895413208F03FC09091D906C2
:103830009111FCCF91E09093D9062093D7062FEFFA
:103840002093D0061092D506242F21502093D40621
:103850009093D8069091D806880F892B8093D8062C
:103860008091D606813041F41092D6068091D80618
:103870008093BB0085EC01C085EE8093BC008091F5
:10388000D9068130E1F38091D506841710F4409178
:10389000D5062AED36E0FB01D90102C08D91819356
:1038A0008A2F821B8417D0F301C040E0842F089533
:1038B0000F93413208F046C09091D9069111FCCF88
:1038C00092E09093D9060093D7069FEF9093D0068D
:1038D0001092D5064093D406FB016AED76E0DB0139
:1038E00002C091919D939A2F961B9417D0F310923A
:1038F000D8069091D806880F892B8093D80680919E
:10390000D606813041F41092D6068091D806809375
:10391000BB0085EC01C085EE8093BC00222321F022
:103920008091D9068230E1F38091D0068F3F61F01B
:103930008091D006803251F08091D006803341F4DE
:1039400083E007C081E005C080E003C082E001C0E1
:1039500084E00F910895613298F42091D9062430C3
:1039600089F46093D206FC018AEF96E0DC0102C084
:1039700021912D932A2F281B2617D0F380E008953C
:1039800081E0089582E0089585ED8093BC008091E8
:10399000BC0084FDFCCF1092D906089585EC80937D
:1039A000BC001092D90608951F920F920FB60F9285
:1039B00011242F933F934F935F936F937F938F9334
:1039C0009F93AF93BF93EF93FF938091B900887F4C
:1039D000803609F49FC058F5883209F45BC090F432
:1039E000803109F452C038F4882309F4F8C08830D3
:1039F00009F0F9C04AC0883109F44CC0803209F09E
:103A0000F2C05CC0803409F46BC038F4803309F430
:103A100055C0883309F0E7C054C0803509F454C05C
:103A2000883509F462C0883409F0DDC0DAC088390D
:103A300009F4CBC0A8F4883709F46CC038F4883690
:103A400009F468C0803709F0CEC064C0883809F432
:103A5000BCC0803909F464C0803809F0C4C060C0BB
:103A6000803B09F48AC038F4803A09F46BC0883A84
:103A700009F0B9C082C0803C09F4ABC0883C09F4AD
:103A8000A8C0883B09F0AFC08DC08091D806809354
:103A9000BB0012C09091D5068091D406981788F586
:103AA0008091D506E82FF0E0E652F94F908190938F
:103AB000BB008F5F8093D50685EC88C08093D006CD
:103AC00090C08093D00656C08091D5069091BB00DF
:103AD000E82FF0E0E652F94F90838F5F8093D50690
:103AE0009091D5068091D4066DC08091D5069091B5
:103AF000BB00E82FF0E0E652F94F90838F5F809390
:103B0000D5068091D70681116CC081E08093D606DE
:103B100084EA60C083E08093D9061092D106CCCFAE
:103B20008091D106803208F050C08091D1069091EA
:103B3000BB00E82FF0E0E25EF84F90838F5F809348
:103B4000D106BACF8091D106803230F4E091D1060F
:103B5000F0E0E25EF84F10820E94C41C6091D10632
:103B6000E0911A07F0911B0770E08EE197E009954C
:103B70001092D1060E94CE1C36C084E08093D906F4
:103B80001092D3061092D206E0911C07F0911D0707
:103B900009958091D206811105C081E08093D206FB
:103BA0001092FA068091D306E82FF0E0E650F94F24
:103BB00090819093BB008F5F8093D3069091D30642
:103BC0008091D206981708F477CF85E88093BC00DF
:103BD0000AC085EC8093BC001092D90604C01092F4
:103BE000D0060E94C41CFF91EF91BF91AF919F91AD
:103BF0008F917F916F915F914F913F912F910F9096
:103C00000FBE0F901F90189561E08DE00E9427076E
:103C100061E08BE00E94270761E08AE00E942707AD
:103C200060E08DE00E945F0760E08BE00E945F072C
:103C300061E08AE00E945F078CB580618CBD8CB525
:103C400080648CBD0895811103C08CB5806202C070
:103C50008CB58F7D8CBD08959CB5937F982B9CBDB2
:103C600008952CB5982F93702C7F922B9CBD9DB5F9
:103C700082FB882780F99E7F982B9DBD08950F9326
:103C80001F93CF93DF938230910510F482E090E090
:103C9000E0914007F091410720E030E0C0E0D0E043
:103CA00023C04081518148175907A8F04817590788
:103CB00061F482819381209719F09B838A832EC0BF
:103CC000909341078093400729C02115310529F0C1
:103CD0004217530710F0A90102C0BE01DF010281A3
:103CE0001381EF019A01F8013097D9F621153105BA
:103CF00009F1281B390B2430310590F412968D916F
:103D00009C9113976115710521F0FB0193838283C8
:103D100004C09093410780934007FD01329644C050
:103D2000FD01E20FF31F81939193225031092D93EE
:103D30003C933AC020913E0730913F07232B41F43A
:103D4000209102013091030130933F0720933E07F9
:103D500020910001309101012115310541F42DB769
:103D60003EB74091040150910501241B350BE091B1
:103D70003E07F0913F07E217F307A0F42E1B3F0B1D
:103D80002817390778F0AC014E5F5F4F24173507CD
:103D900048F04E0F5F1F50933F0740933E078193BB
:103DA000919302C0E0E0F0E0CF01DF91CF911F914D
:103DB0000F910895EF92FF920F931F93CF93DF938C
:103DC000009709F48EC0DC01129713961C921E9284
:103DD0001297E0904007F0904107E114F10489F454
:103DE0002D913C911197280F391F80913E0790919A
:103DF0003F078217930789F5B0933F07A0933E07CB
:103E000070C0E70120E030E001C0EA01CA17DB071B
:103E100038F44A815B819E0141155105B1F722C0FA
:103E2000AC0142505109FA01D383C2830081118150
:103E3000BC01600F711F6C177D0761F46881798187
:103E4000600F711F6E5F7F4F718360836A817B811A
:103E5000738362832115310529F4B0934107A09340
:103E600040073FC0F901B383A283E9014991599109
:103E7000C40FD51FAC17BD0771F4DC019E918E9164
:103E8000840F951F02969183808312968D919C9149
:103E9000139793838283A0E0B0E002C0D7017C0136
:103EA000F701828193810097C9F7C70102962081AB
:103EB0003181820F931F20913E0730913F072817D1
:103EC000390779F4109729F41092410710924007AE
:103ED00004C013961C921E921297F0923F07E09234
:103EE0003E07CDB7DEB7E6E00C94EE27A0E0B0E0E9
:103EF000ECE7FFE10C94CC27EC01009729F4CB010F
:103F00000E943F1EEC01B4C0DC01A60FB71FFC01EC
:103F10003297AE17BF0718F4C0E0D0E0A9C0008107
:103F2000118106171707B0F00530110508F4A0C07D
:103F3000C80104978617970708F49AC00250110920
:103F4000061B170B0D931D9371836083CD010E9497
:103F5000DA1E8EC06B01C01AD10A7C01E00EF11E80
:103F6000E0914007F091410720E030E080E090E0F0
:103F700048C0EE15FF05D1F580809180540142E0E4
:103F8000A40EB11CAC14BD0488F17401EC18FD083A
:103F9000670122E0C20ED11C9E012250310945E08A
:103FA000C416D10478F04281538113965C934E93EA
:103FB00012971196FC92EE92F901718360833A2F69
:103FC0002B2F09C00E5F1F4F080D191DD9010D932E
:103FD0001C9332812381009721F0FC0132832383DB
:103FE00047C0309340072093410742C080819181B0
:103FF0002817390708F49C0152814381CF01E52F2E
:10400000F42F309709F0B5CF80913E0790913F078C
:104010008E159F05F1F426173707D8F4809100011B
:1040200090910101009741F48DB79EB72091040152
:1040300030910501821B930BA817B90708F06CCFCC
:10404000B0933F07A0933E07FE01329771836083D0
:104050000FC0CB010E943F1E7C01009709F45CCF8A
:10406000A801BE010E946921CE010E94DA1EE7016B
:10407000CE01CDB7DEB7ECE00C94E827A0E0B0E0CD
:10408000E4E4F0E20C94C8272B018A016115710564
:1040900019F0FB01808391830115110539F0980116
:1040A000225031092332310508F0E6C07C01F701C6
:1040B000C1917F013F018C2F90E00E945821892BF4
:1040C000B1F7CD3229F4F701C1913F01D1E006C02B
:1040D000CB3219F4F701C1913F01D0E00115110570
:1040E00009F4D8C00031110581F4D0C0F3018081FA
:1040F000883719F0883509F0C3C0F301C181F2E0B7
:104100006F0E711CD26000E110E008301105D9F08B
:1041100024F402301105F9F407C00A30110551F0FA
:1041200000311105C1F425C0C12CD12CE12C30E4A3
:10413000F32E24C00AE010E02CECC22EDC2CEC2C78
:104140002CE0F22E1BC008E010E0C12CD12CE12C99
:1041500090E1F92E13C09801442737FD4095542F64
:1041600060E070E080E090E80E94882769017A01B1
:1041700005C0C12CD12CE12C88E0F82E40E060E095
:1041800070E0CB014801AA2497FCA094BA2CEC2F34
:10419000E053EA3060F02C2F21542A3110F4E7501C
:1041A00006C02C2F21562A3128F5EC2FE7552E2F4B
:1041B00030E020173107F4F447FD18C0C616D706C3
:1041C000E806F90680F09B01AC01C501B4010E942C
:1041D00050276E0F711D811D911D61307105810584
:1041E00020E8920710F04FEF01C041E0F301C191C8
:1041F0003F01CDCF4114510491F0442339F0F1E057
:104200006F1A7108F2017182608209C0D1FF1BC070
:10421000F2E06F1A7108F2017182608214C047FFE8
:1042200012C0D0FF05C060E070E080E090E804C0FC
:104230006FEF7FEF8FEF9FE722E230E03093490787
:104240002093480716C0D0FF08C0909580957095C0
:1042500061957F4F8F4F9F4F0CC097FF0AC082E23E
:1042600090E090934907809348076FEF7FEF8FEFBF
:104270009FE76B017C0112C0C12CD12C76010EC0CE
:10428000C0E30115110509F45ECF3FCFC03309F03B
:104290003CCF2CCFC03309F04DCF28CFB601C7019A
:1042A000CDB7DEB7E0E10C94E427F8940C944228F3
:1042B000911129C5803219F089508550D0F70895A1
:1042C000FC0105900020E9F7809590958E0F9F1FC7
:1042D0000895FB01DC0102C001900D924150504055
:1042E000D8F70895FB01DC0101900D920020E1F761
:1042F0000895FB01DC014150504048F001900D92BF
:104300000020C9F701C01D9241505040E0F70895C8
:10431000FB019F01E8944230C4F04532B4F44A30C6
:1043200029F497FB1EF4909581959F4F642F772772
:104330000E946027805D8A330CF0895D8193CB01F8
:104340000097A1F716F45DE251931082C9010C9415
:10435000A326FB019F01423074F0453264F4642FC0
:1043600077270E946027805D8A330CF0895D8193F6
:10437000CB010097A1F71082C9010C94A3260F93DB
:104380001F93CF93DF93EC018B01009731F46115FC
:10439000710519F4E0E0F0E037C06EE070E081E014
:1043A00090E00E946526FC010097A1F380E88383DA
:1043B0000115110571F01387028781E883838091CD
:1043C000420790914307892B21F4F0934307E09330
:1043D00042072097C9F0D187C08783818260838399
:1043E0008091440790914507892B71F4F09345071C
:1043F000E09344078091460790914707892B21F469
:10440000F0934707E0934607CF01DF91CF911F91CB
:104410000F910895A2E0B0E0E0E1F2E20C94D4271D
:10442000FE01399661917191FA83E98304E417E002
:10443000D8018D919C91DC0113962C9113972860E3
:1044400013962C93AF010E948824D801ED91FC9122
:104450002381277F23832296E4E00C94F027505891
:10446000BB27AA270ED0B3C1A4D130F0A9D120F028
:1044700031F49F3F11F41EF499C10EF4E095E7FB6F
:104480008FC1E92FB5D180F3BA176207730784078C
:10449000950718F071F49EF5CDC10EF4E0950B2E42
:1044A000BA2FA02D0B01B90190010C01CA01A00186
:1044B0001124FF27591B99F0593F50F4503E68F1E1
:1044C0001A16F040A22F232F342F4427585FF3CF22
:1044D000469537952795A795F0405395C9F77EF4F3
:1044E0001F16BA0B620B730B840BBAF09150A1F03C
:1044F000FF0FBB1F661F771F881FC2F70EC0BA0FC2
:10450000621F731F841F48F4879577956795B79549
:10451000F7959E3F08F0B3CF9395880F08F0992741
:10452000EE0F97958795089517D108F481E00895C7
:104530000CD04DC145D140F03CD130F021F45F3F6B
:1045400019F02EC1511177C131C152D198F399237D
:10455000C9F35523B1F3951B550BBB27AA27621747
:104560007307840738F09F5F5F4F220F331F441F8C
:10457000AA1FA9F333D00E2E3AF0E0E830D09150C4
:104580005040E695001CCAF729D0FE2F27D0660FB1
:10459000771F881FBB1F261737074807AB07B0E8F0
:1045A00009F0BB0B802DBF01FF2793585F4F2AF006
:1045B0009E3F510568F0F4C03EC15F3FECF3983E6A
:1045C000DCF3869577956795B795F7959F5FC9F763
:1045D000880F911D9695879597F90895E1E0660FEC
:1045E000771F881FBB1F621773078407BA0720F065
:1045F000621B730B840BBA0BEE1F88F7E0950895CE
:1046000004D06894B11117C10895FAD088F09F576B
:1046100090F0B92F9927B751A0F0D1F0660F771F0E
:10462000881F991F1AF0BA95C9F712C0B13081F0EE
:1046300001D1B1E00895FEC0672F782F8827B85FB9
:1046400039F0B93FCCF3869577956795B395D9F74F
:104650003EF490958095709561957F4F8F4F9F4F59
:104660000895E89409C097FB3EF490958095709565
:1046700061957F4F8F4F9F4F9923A9F0F92F96E9AE
:10468000BB279395F695879577956795B795F11123
:10469000F8CFFAF4BB0F11F460FF1BC06F5F7F4FC0
:1046A0008F4F9F4F16C0882311F096E911C07723D2
:1046B00021F09EE8872F762F05C0662371F096E8DB
:1046C000862F70E060E02AF09A95660F771F881FAA
:1046D000DAF7880F9695879597F90895E894F92F5A
:1046E00096EBFF2381F0121613061406440B9395E4
:1046F000F69587957795679557954040FF23B9F7CD
:104700001BC099270895882351F49850D2F7872B1E
:10471000762F652F542F432F322F20E0B1F312163E
:1047200013061406440B88233AF09A95440F551F3C
:10473000661F771F881FCAF755234AF4440F551F79
:1047400011F460FF04C06F5F7F4F8F4F9F4F880F42
:104750009695879597F90895990F0008550FAA0B1C
:10476000E0E8FEEF16161706E807F907C0F0121684
:104770001306E407F50798F0621B730B840B950B87
:1047800039F40A2661F0232B242B252B21F40895DC
:104790000A2609F4A140A6958FEF811D811D089579
:1047A00097F99F6780E870E060E008959FEF80ECE4
:1047B000089500240A941616170618060906089587
:1047C00000240A9412161306140605060895092EED
:1047D0000394000C11F4882352F0BB0F40F4BF2B5C
:1047E00011F460FF04C06F5F7F4F8F4F9F4F08959C
:1047F00057FD9058440F551F59F05F3F71F0479592
:10480000880F97FB991F61F09F3F79F08795089576
:10481000121613061406551FF2CF4695F1DF08C095
:10482000161617061806991FF1CF869571056105B2
:1048300008940895E894BB2766277727CB0197F95A
:1048400008958ADF08F48FEF08950BD0C0CFB1DF51
:1048500028F0B6DF18F0952309F0A2CFA7CF1124D6
:10486000EACFC6DFA0F3959FD1F3950F50E0551F17
:10487000629FF001729FBB27F00DB11D639FAA27B5
:10488000F00DB11DAA1F649F6627B00DA11D661F04
:10489000829F2227B00DA11D621F739FB00DA11D25
:1048A000621F839FA00D611D221F749F3327A00DDF
:1048B000611D231F849F600D211D822F762F6A2F7B
:1048C00011249F5750408AF0E1F088234AF0EE0F00
:1048D000FF1FBB1F661F771F881F91505040A9F70D
:1048E0009E3F510570F05CCFA6CF5F3FECF3983E42
:1048F000DCF3869577956795B795F795E7959F5F74
:10490000C1F7FE2B880F911D9695879597F908950D
:10491000ACE0B0E0EEE8F4E20C94C6277C016B0159
:104920008A01FC0117821682838181FFC7C1882416
:104930008394912C8C0E9D1EF7019381F60193FDBB
:10494000859193FF81916F01882309F4B3C185326A
:1049500039F493FD859193FF81916F01853229F49C
:10496000B70190E00E94B326E7CF712C312C20E0F4
:104970002032A8F48B3261F028F4803251F0833277
:1049800071F40BC08D3239F0803349F4216028C0B6
:104990002260246025C0286023C0206121C027FD3B
:1049A00027C0382F30533A3078F426FF06C0FAE09B
:1049B0007F9E300D1124732E13C08AE0389E300D77
:1049C0001124332E20620CC08E3221F426FD72C1D8
:1049D000206406C08C3611F4206802C0883641F489
:1049E000F60193FD859193FF81916F018111C0CFF5
:1049F000982F9554933018F09052933028F40C5F10
:104A00001F4FFFE3F9830DC0833631F0833771F018
:104A1000833509F05EC023C0F801808189830E5F71
:104A20001F4F66246394712C540115C02801F2E0D5
:104A30004F0E511CF801A080B18026FF03C0672DE6
:104A400070E002C06FEF7FEFC5012C870E949826AF
:104A50003C0182012C856FE7262E222218C02801F6
:104A6000F2E04F0E511CF801A080B18026FF03C078
:104A7000672D70E002C06FEF7FEFC5012C870E94A9
:104A800086263C012C8550E8252E222A820123FC13
:104A90001CC006C0B70180E290E00E94B3263A94A1
:104AA000832D90E068167906A8F30FC0F50127FC66
:104AB000859127FE81915F01B70190E00E94B326A6
:104AC00031103A94F1E06F1A71086114710471F7B2
:104AD000EEC0843611F0893641F5F80127FF07C092
:104AE00060817181828193810C5F1F4F08C060815A
:104AF0007181882777FD8095982F0E5F1F4F4FE6B5
:104B0000642E622297FF09C09095809570956195FB
:104B10007F4F8F4F9F4FF0E86F2A2AE030E0A401CB
:104B20000E94DF26A82EA81844C0853731F43FEE36
:104B3000B32EB2222AE030E024C099EFB92EB2227F
:104B40008F36B9F020F4883509F0B4C00DC0803735
:104B500021F0883709F0AEC002C020E1B22AB4FECD
:104B60000BC084E0B82A08C024FF09C0E6E0BE2AD2
:104B700006C028E030E005C020E130E002C020E1BE
:104B800032E0F801B7FE07C06081718182819381B4
:104B90000C5F1F4F06C06081718180E090E00E5F66
:104BA0001F4FA4010E94DF26A82EA8188FE7682EA9
:104BB0006B2066FE0BC0362D3E7FA71450F464FEBA
:104BC0000AC062FC08C0362D3E7E05C0BA2C362DC8
:104BD00003C0BA2C01C0B72C34FF0DC0FE01EA0D92
:104BE000F11D8081803311F4397E09C032FF06C087
:104BF000B394B39404C0832F867809F0B39433FD43
:104C000014C030FF0FC07A2CB31460F4730C7B18FF
:104C1000B32C08C0B70180E290E03C870E94B32625
:104C2000B3943C85B314B0F304C0B31410F43B1830
:104C300001C0312C34FF12C0B70180E390E03C8703
:104C40000E94B3263C8532FF1EC031FF03C088E5B9
:104C500090E002C088E790E0B7010CC0832F86780F
:104C600091F031FD02C080E201C08BE237FD8DE2A0
:104C7000B70190E00E94B32606C0B70180E390E040
:104C80000E94B3267A94A714C0F3AA94F401EA0D03
:104C9000F11DB701808190E00E94B326A110F5CFED
:104CA00006C0B70180E290E00E94B3263A9431102A
:104CB000F8CF42CEF7012681378102C02FEF3FEFB8
:104CC000C9012C96E2E10C94E2270F931F93CF9336
:104CD000DF93689F8001699F100D789F100D11244C
:104CE000C8010E943F1EC82FD92F209731F0A8017C
:104CF00060E070E08C2F0E949126CE01DF91CF9171
:104D00001F910F910895992788270895FC01059018
:104D1000615070400110D8F7809590958E0F9F1FBD
:104D20000895DC0101C06D9341505040E0F70895B3
:104D3000FC016150704001900110D8F7809590956A
:104D40008E0F9F1F0895DC01FC01672F719177235F
:104D5000E1F7329704C07C916D9370836291AE1736
:104D6000BF07C8F308950F931F93CF93DF938C0170
:104D7000EB018B8181FD03C00FEF1FEF1AC082FF93
:104D80000DC02E813F818C819D812817390764F4E5
:104D9000E881F9810193F983E88306C0E885F98504
:104DA000802F0995892B41F78E819F8101969F83E2
:104DB0008E83C801DF91CF911F910F910895FA0161
:104DC000AA27283051F1203181F1E8946F936E7F4A
:104DD0006E5F7F4F8F4F9F4FAF4FB1E03ED0B4E03B
:104DE0003CD0670F781F891F9A1FA11D680F791F7C
:104DF0008A1F911DA11D6A0F711D811D911DA11D8D
:104E000020D009F468943F912AE0269F112430199C
:104E1000305D3193DEF6CF010895462F4770405D37
:104E20004193B3E00FD0C9F7F6CF462F4F70405DE6
:104E30004A3318F0495D31FD4052419302D0A9F741
:104E4000EACFB4E0A6959795879577956795BA953B
:104E5000C9F700976105710508959B01AC010A2E01
:104E600006945795479537952795BA95C9F7620FD8
:104E7000731F841F951FA01D08950E943028A59FB1
:104E8000900DB49F900DA49F800D911D1124089545
:104E9000B7FF0C943D270E943D27821B930B08957A
:104EA000DB018F939F930E943D27BF91AF91A29FFB
:104EB000800D911DA39F900DB29F900D1124089518
:104EC000AA1BBB1B51E107C0AA1FBB1FA617B70730
:104ED00010F0A61BB70B881F991F5A95A9F780954C
:104EE0009095BC01CD01089597FB072E16F4009410
:104EF00007D077FD09D00E94602707FC05D03EF45B
:104F0000909581959F4F0895709561957F4F089575
:104F1000A1E21A2EAA1BBB1BFD010DC0AA1FBB1FBD
:104F2000EE1FFF1FA217B307E407F50720F0A21B2F
:104F3000B30BE40BF50B661F771F881F991F1A949C
:104F400069F760957095809590959B01AC01BD01C6
:104F5000CF010895052E97FB16F4009407D057FD56
:104F60000DD00E94882707FC09D07EF4909580958B
:104F7000709561957F4F8F4F9F4F08955095409545
:104F8000309521953F4F4F4F5F4F08952F923F929D
:104F90004F925F926F927F928F929F92AF92BF9249
:104FA000CF92DF92EF92FF920F931F93CF93DF93F5
:104FB000CDB7DEB7CA1BDB0B0FB6F894DEBF0FBE52
:104FC000CDBF09942A88398848885F846E847D849F
:104FD0008C849B84AA84B984C884DF80EE80FD80A1
:104FE0000C811B81AA81B981CE0FD11D0FB6F89417
:104FF000DEBF0FBECDBFED0108950F930F7351F0CB
:10500000220F331F441F551F661F771F881F991FCC
:105010000A95B1F70F9108950F930F7351F096957C
:1050200087957795679557954795379527950A956D
:10503000B1F70F9108952A153B054C055D056E05E6
:105040007F058007910708950024A7FD00942A1783
:1050500030054005500560057005800590050895F0
:10506000A29FB001B39FC001A39F01D0B29F700D5A
:10507000811D1124911D0895EE0FFF1F0590F491DD
:10508000E02D099412E0C6E8D2E004C0FE010E94BF
:0E5090003E282296CC38D107C9F7F894FFCFFE
:10509E0000004A07200001800080007B2269642204
:1050AE003A202277656174686572222C2022636F24
:1050BE006465223A203430307D005643433A200056
:1050CE0020760048756D69646974793A2000202550
:1050DE0000202A4300496E7465726E616C2054651F
:1050EE006D70657261747572653A20004C756D69EC
:1050FE006E6F736974793A200048756D69646974CE
:10510E00792050726F6265733A205B002C20005D2F
:10511E000057617465723A20007B226964223A203E
:10512E0022626D70222C2022636F6465223A203435
:10513E0030307D007B226964223A202267726565D9
:10514E006E686F757365222C2022636F6465223A38
:10515E00203330302C202264657461696C73223ADE
:10516E00202200227D007B226964223A202277656C
:10517E006174686572222C2022636F6465223A2066
:10518E00323030002C2022496E646F6F7254656D80
:10519E007065726174757265223A20002C2022505F
:1051AE0072657373757265223A20007B22696422E0
:1051BE003A202277656174686572222C2022636F13
:1051CE006465223A203230302C202248756D696495
:1051DE00697479223A20002C20224368616E6E6534
:1051EE006C223A20007B226964223A202277656184
:1051FE0074686572222C2022636F6465223A203512
:10520E0030302C202248756D6964697479223A20F9
:10521E00007B226964223A20227765617468657288
:10522E00222C2022636F6465223A203530302C20E8
:10523E002254656D7065726174757265223A200034
:10524E007B226964223A2022776561746865722236
:10525E002C2022636F6465223A203530302C2022B8
:10526E0053796E63223A2066616C7365002C20229E
:10527E005061636B6574223A20223078007B22697C
:10528E0064223A20227266343333222C2022636F3A
:10529E006465223A20323030007B226964223A2043
:1052AE00227266343333222C2022636F6465223AD5
:1052BE0020353030007B226964223A2022677265E5
:1052CE00656E686F757365222C2022636F6465228C
:1052DE003A20323030002C2022564343223A20000E
:1052EE002C2022496E7465726E616C54656D70224D
:1052FE003A20002C20224C756D696E6F736974799B
:10530E00223A20002C20225761746572223A200026
:10531E002C202248756D696469747950726F6265CC
:10532E00007B226964223A20227472616E736D6969
:10533E0074746572222C2022636F6465223A2032C7
:10534E0030302C20226D657373616765223A2022FE
:10535E0030780022207D0000000000FB07850996B2
:10536E0007C507A907E9072E00756E6B6E6F776E7E
:10537E00206572726F723A2000496E76616C6964B4
:10538E0020636865636B73756D3A2000496E7661B4
:10539E006C69642074656D70657261747572653ABE
:1053AE002000496E76616C69642068756D69646968
:1053BE0074793A2000756E6B6E6F776E206572721F
:1053CE006F720000000000771A491A1B1A241A384F
:0453DE001A481A004F
:00000001FF
